:0A08600043BA80120511D2AF80FEEA
:1005110053B2FC43B10390FE077480F090FE07E0F4
:1005210030E0F9E4F5DC75F490FDFF1208277D0950
:100531007F011208277D3F7F071208277D3F7F0932
:100541001208277D077F0B1208277D017F01120802
:0F05510027751002E4F511F517F51843AF802256
:0907C600E4FD7F0E1208277F11EB
:1007CF00E5FC20E7FBEF4480F5FCE5FC20E7FBAF01
:0107DF00EC2D
:0107E00022F6
:040823007D407F1184
:0D082700E5FC20E7FBEF547FF5FC8DEC2293
:080653008B1C8A1D891EAE07F5
:10065B007F161207CFAD07AC05AF051DEF6019AFC5
:10066B00061207CFAB1C051EE51EAA1D7002051D49
:0A067B0014F9EF12072A80E1AF0422
:010685002252
:10073C008B228A238924AE07AF251525EF6019AFCC
:10074C0006AB220524E524AA237002052314F91212
:09075C000711FD12082780E022BC
:0300CB0002021E10
:10021E00C0E0C0F0C083C082C0D075D000C000C0A6
:0D022E0001C002C003C004C005C006C00727
:10023B007F061207CF8F197F021207CF8F1A7F0409
:10024B001207CF8F1BE51930E1031200C9E51930F6
:10025B00E2031206B6E51A30E0031203F5E51A3095
:10026B00E1031207E1E51B30E10312061CE519302F
:05027B00E0031200CABF
:10028000D007D006D005D004D003D002D001D000D2
:0B029000D0D0D082D083D0F0D0E0327C
:0100C9002214
:1006B600E4FDFF120827751002E4F5110D7F0E12F6
:1006C60008277D487F111208277D017F0E12082713
:0E06D6007D907F14120827E4FD7F0E02082796
:0100CA002213
:1003F5001207C6AE07EE30E20B54FBFD7F11120863
:1004050027E4F511EE30E4084480FD7F111208273A
:10041500E51124FD603D14603D2404703CEE30E0A0
:10042500387B007A0079087F20120653AF0FAE0E95
:100435001208458E0E8F0FE508546024E0600B24EA
:10044500E0600A2440700902045F0206E402089D88
:0904550002086A0204B91205A3B1
:01045E00227B
:0A086A007511057D607F110208275B
:090888007511031208230204B9E2
:0A0874007511047D407F1102082772
:0A087E00E4F5117D487F1102082700
:1004B9001207C6EF20E150D3E5139440E5129400EA
:1004C90040047F408002AF13AC07AB14AA15A916EC
:1004D9008C257F2012073CECFFC3E5139FF513E53C
:1004E900129400F512EF2516F516E43515F515E504
:1004F900134512700B7D0A7F11120827E4F51122AA
:070509007D027F111208279B
:0105100022C8
:1005A3001207C6EF30E037AB14AA15A9167F201245
:1005B3000653EFFDC3E5139DF513E5129400F51201
:1005C300EF2516F516E43515F515E5134512700BF1
:0E05D3007D487F11120827E4F511221208233B
:0105E10022F7
:10083400E5202420FF8D2512073C7D017F1102084D
:01084400278C
:10081000ED2420FF120653AE07E4FD7F14120827D3
:02082000AF0621
:0108220022B3
:1007E1007D011207C8AE07EE30E503120823EE3093
:0907F100E207E4FD7F1112082764
:0107FA0022DC
:10061C007D017F0E1208277F141207CFAE07EE3034
:10062C00E6077D807F14120827EE30E0197B017AF3
:10063C000079007D01120810AD077B017A0079006A
:06064C00752001120834C4
:010652002285
:10019E001201000200000040BF3401FF0001010205
:1001AE000001090229000101008032090400000249
:1001BE0003000000092101010001221B0007058137
:1001CE000340000A0705010340000A050C0901A1BE
:1001DE0001150025FF750895400901B1020901813D
:1001EE000209019102C004030904080353005400DC
:1001FE0043001A03530054004300200048004900F6
:10020E0044002000440065006D006F0000000100F6
:1006E400E50924FE601714601A24FA600D146010E2
:1006F400146013240A70120200A802076502078618
:0D0704000207FB02089102089412086A2205
:1000A800E510B40406E50864A1600302086A751443
:1000B80001751500751600850E12850F1312088834
:0100C8002215
:10076500E510B40406E5086421600302086A7514FF
:1007750001751500751600850E12850F1312087484
:010785002251
:10078600E510B40406E50864A1600302086A75145E
:100796000075150075162675120075130112088866
:0107A6002230
:1007FB00E510B40406E5086421600302086A850B62
:05080B002612087E2208
:0308910002086AF0
:0308940002086AED
:10045F00E509B40D00504F90046DF828287302047D
:10046F00940204970204B502049A0204B502049D93
:10047F000204A00204A30204A60204A90204AC020F
:10048F0004AF0204B20200CE02029B020313020564
:10049F00E202000302089702056002038902068642
:0A04AF000207A702089A12086A2249
:1000CE00E50830E753E50B704FE50A704BE50F641A
:1000DE0002450E6003020197E508540F14601514D3
:1000EE00602D24026003020197E50D7004E50C609B
:1000FE0013020197E510B40408E50D7004E50C60D9
:10010E00030201977514FF75150275161A8070E5B6
:10011E0010B40404E50D6002806FE50C540FF51C5D
:10012E00E50C1460302480705E7E007401A81C08FB
:10013E008005C333CE33CED8F9FFEF5517600B755C
:10014E0014FF75150275161C80097514FF751502BE
:10015E0075161A802A7E007401A81C088005C33308
:10016E00CE33CED8F9FFEF5518600B7514FF751509
:10017E000275161C80097514FF75150275161A7511
:0F018E0012007513028005800002086A120888AB
:01019D00223F
:10029B00E510B40417E508B40212E50D7063E50B25
:1002AB00705FE50A705BE50F450E60028053E50C4D
:1002BB00540FF51CE50C14602124807044AF1CA86E
:1002CB00077401088002C333D8FCF45217AD1C7FAE
:1002DB000E1208277D407F11801BAF1CA8077401ED
:1002EB00088002C333D8FCF45218AD1C7F0E1208E1
:1002FB00277D807F14120827E4FD7F0E12082780CC
:07030B000302086A12087EDC
:0103120022C8
:10031300E510B40417E508B40212E50D7061E50BAE
:10032300705DE50A7059E50F450E60028051E50CDA
:10033300540FF51CE50C14602024807042AF1CA8F8
:10034300077401088002C333D8FC4217AD1C7F0E2B
:100353001208277D107F11801AAF1CA807740108AB
:100363008002C333D8FC4218AD1C7F0E1208277DD0
:10037300207F14120827E4FD7F0E12082780030252
:05038300086A12087E6B
:010388002252
:1005E200E5087019E50D7015E50C7011E50B700D3D
:1005F200E50AC394805006E50F450E600302086ABF
:10060200850A1CAD1CE4FF120827E51C6005751065
:0906120003800375100212087E3A
:01061B0022BC
:10000300E50820E703020090E50B24FE601C146062
:100013002A24E16067242170747514FF7515017536
:10002300169E75120075131280667514FF751501FF
:100033007516B07512007513298055E50A146018FA
:10004300146026240270337514FF7515017516F4B8
:1000530075120075130480387514FF751501751634
:10006300F875120075130880277514FF751502754E
:10007300160075120075131A801680117514FF751A
:1000830015017516D975120075131B800302086AD2
:10009300D3E513950FE512950E4006850E12850FD5
:0500A300131208882281
:0308970002086AEA
:10056000E508B48018E50B7014E50A7010E50D700D
:100570000CE50C7008E50F6401450E600302086A83
:10058000E510B4040B7514FF75150275161C80096F
:100590007514FF75150275161A7512007513011280
:0305A000088822A6
:10038900E51064026016E5087012E50B700EE50DC4
:10039900700AE50C7006E50F450E600302086AE570
:1003A9000A6401703A751004F517F5187D017F0E7E
:1003B9001208277D207F121208277D087F10120856
:1003C900277D017F0E120827E4FD7F121208277D81
:1003D900087F13120827E4FD7F0E1208278009758C
:0C03E90010037517FF7518FF12087E2224
:10068600E510B40415E508B48110E50B700CE50D12
:100696007008E50F6401450E600302086A7514FFD1
:1006A60075150275161A751200751301120888223F
:1007A700E510B40413E508B4010EE50B700AE50D76
:0F07B7007006E50F450E600302086A12087E22E5
:03089A0002086AE7
:03089D0002086AE4
:040845008E1C8F1D59
:0A084900851D1E851C1FAE1EAF1F8B
:010853002282
:030000000208549F
:0C085400787FE4F6D8FD7581260208606C
:10071100BB010689828A83E0225002E722BBFE02E6
:09072100E32289828A83E4932219
:10072A00BB010689828A83F0225002F722BBFE01AE
:02073A00F322A8
:00000001FF
